{
  "contractName": "VendingMachine",
  "abi": [
    {
      "inputs": [],
      "stateMutability": "nonpayable",
      "type": "constructor"
    },
    {
      "inputs": [
        {
          "internalType": "address",
          "name": "",
          "type": "address"
        }
      ],
      "name": "donutBalances",
      "outputs": [
        {
          "internalType": "uint256",
          "name": "",
          "type": "uint256"
        }
      ],
      "stateMutability": "view",
      "type": "function",
      "constant": true
    },
    {
      "inputs": [],
      "name": "owner",
      "outputs": [
        {
          "internalType": "address",
          "name": "",
          "type": "address"
        }
      ],
      "stateMutability": "view",
      "type": "function",
      "constant": true
    },
    {
      "inputs": [],
      "name": "price",
      "outputs": [
        {
          "internalType": "uint256",
          "name": "",
          "type": "uint256"
        }
      ],
      "stateMutability": "view",
      "type": "function",
      "constant": true
    },
    {
      "inputs": [],
      "name": "getVendingMachineBalance",
      "outputs": [
        {
          "internalType": "uint256",
          "name": "",
          "type": "uint256"
        }
      ],
      "stateMutability": "view",
      "type": "function",
      "constant": true
    },
    {
      "inputs": [
        {
          "internalType": "uint256",
          "name": "amount",
          "type": "uint256"
        }
      ],
      "name": "restock",
      "outputs": [],
      "stateMutability": "nonpayable",
      "type": "function"
    },
    {
      "inputs": [
        {
          "internalType": "uint256",
          "name": "amount",
          "type": "uint256"
        }
      ],
      "name": "purchase",
      "outputs": [],
      "stateMutability": "payable",
      "type": "function",
      "payable": true
    },
    {
      "inputs": [
        {
          "internalType": "uint256",
          "name": "newPrice",
          "type": "uint256"
        }
      ],
      "name": "changePrice",
      "outputs": [],
      "stateMutability": "nonpayable",
      "type": "function"
    }
  ],
  "bytecode": "0x608060405234801561001057600080fd5b50336000806101000a81548173ffffffffffffffffffffffffffffffffffffffff021916908373ffffffffffffffffffffffffffffffffffffffff1602179055506064600160003073ffffffffffffffffffffffffffffffffffffffff1673ffffffffffffffffffffffffffffffffffffffff16815260200190815260200160002081905550671bc16d674ec800006002819055506109c7806100b46000396000f3fe6080604052600436106100705760003560e01c8063a2b40d191161004e578063a2b40d1914610108578063c21a702a14610131578063e7644d341461015a578063efef39a11461018557610070565b80638da5cb5b146100755780639a020d8a146100a0578063a035b1fe146100dd575b600080fd5b34801561008157600080fd5b5061008a6101a1565b604051610097919061056b565b60405180910390f35b3480156100ac57600080fd5b506100c760048036038101906100c291906105b7565b6101c5565b6040516100d491906105fd565b60405180910390f35b3480156100e957600080fd5b506100f26101dd565b6040516100ff91906105fd565b60405180910390f35b34801561011457600080fd5b5061012f600480360381019061012a9190610644565b6101e3565b005b34801561013d57600080fd5b5061015860048036038101906101539190610644565b61027b565b005b34801561016657600080fd5b5061016f610362565b60405161017c91906105fd565b60405180910390f35b61019f600480360381019061019a9190610644565b6103a9565b005b60008054906101000a900473ffffffffffffffffffffffffffffffffffffffff1681565b60016020528060005260406000206000915090505481565b60025481565b60008054906101000a900473ffffffffffffffffffffffffffffffffffffffff1673ffffffffffffffffffffffffffffffffffffffff163373ffffffffffffffffffffffffffffffffffffffff1614610271576040517f08c379a0000000000000000000000000000000000000000000000000000000008152600401610268906106f4565b60405180910390fd5b8060028190555050565b60008054906101000a900473ffffffffffffffffffffffffffffffffffffffff1673ffffffffffffffffffffffffffffffffffffffff163373ffffffffffffffffffffffffffffffffffffffff1614610309576040517f08c379a000000000000000000000000000000000000000000000000000000000815260040161030090610760565b60405180910390fd5b80600160003073ffffffffffffffffffffffffffffffffffffffff1673ffffffffffffffffffffffffffffffffffffffff168152602001908152602001600020600082825461035891906107af565b9250508190555050565b6000600160003073ffffffffffffffffffffffffffffffffffffffff1673ffffffffffffffffffffffffffffffffffffffff16815260200190815260200160002054905090565b600254816103b79190610805565b3410156103f9576040517f08c379a00000000000000000000000000000000000000000000000000000000081526004016103f0906108ab565b60405180910390fd5b80600160003073ffffffffffffffffffffffffffffffffffffffff1673ffffffffffffffffffffffffffffffffffffffff16815260200190815260200160002054101561047b576040517f08c379a00000000000000000000000000000000000000000000000000000000081526004016104729061093d565b60405180910390fd5b80600160003073ffffffffffffffffffffffffffffffffffffffff1673ffffffffffffffffffffffffffffffffffffffff16815260200190815260200160002060008282546104ca919061095d565b9250508190555080600160003373ffffffffffffffffffffffffffffffffffffffff1673ffffffffffffffffffffffffffffffffffffffff168152602001908152602001600020600082825461052091906107af565b9250508190555050565b600073ffffffffffffffffffffffffffffffffffffffff82169050919050565b60006105558261052a565b9050919050565b6105658161054a565b82525050565b6000602082019050610580600083018461055c565b92915050565b600080fd5b6105948161054a565b811461059f57600080fd5b50565b6000813590506105b18161058b565b92915050565b6000602082840312156105cd576105cc610586565b5b60006105db848285016105a2565b91505092915050565b6000819050919050565b6105f7816105e4565b82525050565b600060208201905061061260008301846105ee565b92915050565b610621816105e4565b811461062c57600080fd5b50565b60008135905061063e81610618565b92915050565b60006020828403121561065a57610659610586565b5b60006106688482850161062f565b91505092915050565b600082825260208201905092915050565b7f4f6e6c7920746865206f776e65722063616e206368616e67652074686520707260008201527f6963652e00000000000000000000000000000000000000000000000000000000602082015250565b60006106de602483610671565b91506106e982610682565b604082019050919050565b6000602082019050818103600083015261070d816106d1565b9050919050565b7f4f6e6c7920746865206f776e65722063616e20726573746f636b2e0000000000600082015250565b600061074a601b83610671565b915061075582610714565b602082019050919050565b600060208201905081810360008301526107798161073d565b9050919050565b7f4e487b7100000000000000000000000000000000000000000000000000000000600052601160045260246000fd5b60006107ba826105e4565b91506107c5836105e4565b9250827fffffffffffffffffffffffffffffffffffffffffffffffffffffffffffffffff038211156107fa576107f9610780565b5b828201905092915050565b6000610810826105e4565b915061081b836105e4565b9250817fffffffffffffffffffffffffffffffffffffffffffffffffffffffffffffffff048311821515161561085457610853610780565b5b828202905092915050565b7f496e73756666696369656e74207061796d656e7420666f7220646f6e7574732e600082015250565b6000610895602083610671565b91506108a08261085f565b602082019050919050565b600060208201905081810360008301526108c481610888565b9050919050565b7f4e6f7420656e6f75676820646f6e75747320696e2073746f636b20746f20636f60008201527f6d706c65746520746869732070757263686173652e0000000000000000000000602082015250565b6000610927603583610671565b9150610932826108cb565b604082019050919050565b600060208201905081810360008301526109568161091a565b9050919050565b6000610968826105e4565b9150610973836105e4565b92508282101561098657610985610780565b5b82820390509291505056fea2646970667358221220b32182a7f1b9b920de6504feda78e28bbc98f594ff650b75d8724315881ee76764736f6c634300080b0033",
  "immutableReferences": {},
  "source": "// SPDX-License-Identifier: MIT\r\npragma solidity ^0.8.11;\r\n\r\ncontract VendingMachine {\r\n\r\n    // state variables\r\n    address public owner;\r\n    mapping (address => uint) public donutBalances;\r\n    uint public price;\r\n\r\n    // set the owner as th address that deployed the contract\r\n    // set the initial vending machine balance to 100\r\n    constructor() {\r\n        owner = msg.sender;\r\n        donutBalances[address(this)] = 100;\r\n        price = 2 ether;\r\n    }\r\n\r\n    function getVendingMachineBalance() public view returns (uint) {\r\n        return donutBalances[address(this)];\r\n    }\r\n\r\n    // Let the owner restock the vending machine\r\n    function restock(uint amount) public {\r\n        require(msg.sender == owner, \"Only the owner can restock.\");\r\n        donutBalances[address(this)] += amount;\r\n    }\r\n\r\n    // Purchase donuts from the vending machine\r\n    function purchase(uint amount) public payable {\r\n        require(msg.value >= amount * price, \"Insufficient payment for donuts.\");\r\n        require(donutBalances[address(this)] >= amount, \"Not enough donuts in stock to complete this purchase.\");\r\n        donutBalances[address(this)] -= amount;\r\n        donutBalances[msg.sender] += amount;\r\n    }\r\n\r\n    function changePrice(uint newPrice) public {\r\n        require(msg.sender == owner, \"Only the owner can change the price.\");\r\n        price = newPrice;\r\n    }\r\n}",
  "sourcePath": "C:\\Users\\hp430G8\\Desktop\\vending-machine-contract\\contracts\\VendingMachine.sol",
  "compiler": {
    "name": "solc",
    "version": "0.8.11+commit.d7f03943.Emscripten.clang"
  },
  "schemaVersion": "3.4.16",
  "updatedAt": "2023-11-18T09:10:45.610Z",
  "networkType": "ethereum",
  "devdoc": {
    "kind": "dev",
    "methods": {},
    "version": 1
  },
  "userdoc": {
    "kind": "user",
    "methods": {},
    "version": 1
  }
}